:100000000A128A11F62F00308A000408840A820737
:100010000034443469347334743461346E3463347A
:1000200065343A34003420343C34313430342034B4
:1000300063346D34003420343C342034353420347F
:1000400063346D340034313430342D343234303450
:1000500063346D340034323430342D34353430343C
:1000600063346D34003474346F346F342034663448
:0E0070006134723400344C34003452340034A5
:1006BA00F600F50173087502031808007508760735
:1006CA0084000A128A1103200A128A110A128A1154
:1006DA00CE230A128A110130F4007408F5075F2B41
:1006EA0002300A128A119D230A128A1128300A122C
:1006FA008A119D230A128A110C300A128A119D232B
:10070A000A128A1106300A128A119D230A128A11C4
:10071A0001300A128A119D230A128A118230F400CA
:10072A00DD30F300F30B972BF40B972B9C2B08006F
:10073A00F2007208F0398312031388008714071233
:10074A0007104130F100EE30F000F00BAA2BF10B4C
:10075A00AA2B00008312031387107208F0000330DB
:10076A000310F00DFF3E031DB52B0310700DF03979
:10077A0088008714071207104130F100EE30F000AC
:10078A00F00BC52BF10BC52B000083120313871046
:10079A000800F2007208F0398312031388008714E4
:1007AA00071207144130F100EE30F000F00BDB2B9A
:1007BA00F10BDB2B00008312031387107208F00081
:1007CA0003300310F00DFF3E031DE62B0310700DDE
:1007DA00F03988008714071207144130F100EE300F
:1007EA00F000F00BF62BF10BF62B0000831203132B
:1007FA0087100800F601F11F092CF009F109F00A27
:10080A000319F10AF601F60AF31F142CF209F30987
:10081A00F20A0319F30A0130F4007408F606F70124
:10082A00F8017008710403194B2CF501F50AF11B44
:10083A002A2C01300310F00DF10DFF3E031D1F2C71
:10084A000130F4007408F5071C2C01300310F70D71
:10085A00F80DFF3E031D2B2C71087302031D372C64
:10086A0070087202031C402C7008F2027108031C03
:10087A00F303F302771401300310F10CF00CFF3E7E
:10088A00031D412C0130F502031D2A2C7608031999
:10089A00532CF709F809F70A0319F80A7808F1003E
:1008AA007708F000080030308316031386008701AA
:1008BA0088010A128A1175230A128A114130831299
:1008CA000313A100ED30A000A00B692CA10B692C29
:1008DA006E2C831203132F08A9002E08A8002D08D6
:1008EA00A7002C08A6001030900082300A128A1144
:1008FA009D230A128A11093083120313A0002008CB
:10090A00F30001300A128A115D230A128A1141305A
:10091A0083120313A100ED30A000A00B922CA10BAF
:10092A00922C972C83120313AA01AB012B08803A4D
:10093A00FF0080307F02031DA42C02302A02031814
:10094A00EA2F831203138F018E010130A0002A0AB5
:10095A00B02C0310A00DFF3E031DAE2C200886000C
:10096A000F3083120313A000A00BB92CBC2C8312E6
:10097A00031386011030A0002A0AC52C0310A00D0B
:10098A00FF3E031DC32C200806050319BF2C1014B3
:10099A001030A0002A0AD32C0310A00DFF3E031D1D
:1009AA00D12C20080605031DCD2C10102A08A00002
:1009BA002007263E84000E0883138000840A0F084D
:1009CA0080003230F0000030F1002A08A000200731
:1009DA00263E84000008F200840A0008F3000A1286
:1009EA008A11FF230A128A11831203132A08A1000B
:1009FA002107263E8400700883138000840A710848
:100A0A0080002A08A0002007263E84000008A100D2
:100A1A00840A0008A2002108013EA3002208031844
:100A2A00013E003EA4002A08A5002507263E8400B0
:100A3A0023088000840A240880002A082B04031D46
:100A4A00452DC0300A128A119D230A128A11F30118
:100A5A00F30A33300A128A115D230A128A112130ED
:100A6A0083120313A1007530A000A00B3A2DA10B2D
:100A7A003A2D3F2DC1300A128A119D230A128A117A
:100A8A00831203132A032B04031D6A2DC8300A128A
:100A9A008A119D230A128A11F301F30A35300A12C8
:100AAA008A115D230A128A11213083120313A100CD
:100ABA007530A000A00B5F2DA10B5F2D642DC930EE
:100ACA000A128A119D230A128A11831203132A0811
:100ADA00A0002007263E840083130008A100840A90
:100AEA000008A2002208803AFF0080307F02031D1E
:100AFA00802D02302102031CD72D831203132A08EA
:100B0A00A0002007263E840083130008A100840A5F
:100B1A000008A2002208803AFF0080307F02031DED
:100B2A00982D103021020318D72D07308312031392
:100B3A00A0002008F30013300A128A115D230A125A
:100B4A008A11023083120313A2004530A100A93092
:100B5A00A000A00BAE2DA10BAE2DA20BAE2D8312C1
:100B6A0003130715273083120313A2000D30A100C7
:100B7A002530A000A00BBF2DA10BBF2DA20BBF2DAE
:100B8A00C62D831203130711023083120313A20026
:100B9A004530A100A930A000A00BD12DA10BD12D69
:100BAA00A20BD12D831203132A08A0002007263E88
:100BBA00840083130008A100840A0008A200220806
:100BCA00803AFF0080307F02031DED2D0F30210295
:100BDA00031C872E831203132A08A0002007263E2F
:100BEA00840083130008A100840A0008A2002208D6
:100BFA00803AFF0080307F02031D052E1F3021023C
:100C0A000318872E073083120313A0002008F3006D
:100C1A000B300A128A115D230A128A1102308312DA
:100C2A000313A2004530A100A930A000A00B1B2E7F
:100C3A00A10B1B2EA20B1B2E8312031307150330C5
:100C4A0083120313A2008A30A1005530A000A00B22
:100C5A002C2EA10B2C2EA20B2C2E83120313071160
:100C6A00033083120313A2008A30A1005530A0007A
:100C7A00A00B3D2EA10B3D2EA20B3D2E831203137A
:100C8A000715033083120313A2008A30A1005530DE
:100C9A00A000A00B4E2EA10B4E2EA20B4E2E83129D
:100CAA0003130711033083120313A2008A30A10031
:100CBA005530A000A00B5F2EA10B5F2EA20B5F2E5A
:100CCA00831203130715033083120313A2008A3019
:100CDA00A1005530A000A00B702EA10B702EA20B04
:100CEA00702E831203130711083083120313A20014
:100CFA009D30A1000530A000A00B812EA10B812EF2
:100D0A00A20B812E831203132A08A0002007263E75
:100D1A00840083130008A100840A0008A2002208A4
:100D2A00803AFF0080307F02031D9D2E1E30210273
:100D3A00031C162F831203132A08A0002007263E3D
:100D4A00840083130008A100840A0008A200220874
:100D5A00803AFF0080307F02031DB52E3D3021020C
:100D6A000318162F073083120313A0002008F3007C
:100D7A001B300A128A115D230A128A110230831269
:100D8A000313A2004530A100A930A000A00BCB2E6E
:100D9A00A10BCB2EA20BCB2E831203130715033004
:100DAA0083120313A2008A30A1005530A000A00BC1
:100DBA00DC2EA10BDC2EA20BDC2E831203130711EF
:100DCA00033083120313A2008A30A1005530A00019
:100DDA00A00BED2EA10BED2EA20BED2E8312031309
:100DEA000715033083120313A2008A30A10055307D
:100DFA00A000A00BFE2EA10BFE2EA20BFE2E83122C
:100E0A00031307110D3083120313A200AF30A100A0
:100E1A00B530A000A00B0F2FA10B0F2FA20B0F2F85
:100E2A00162F831203132A08A0002007263E8400E7
:100E3A0083130008A100840A0008A2002208803A4D
:100E4A00FF0080307F02031D2C2F3C302102031C3F
:100E5A007F2F831203132A08A0002007263E84004E
:100E6A0083130008A100840A0008A2002208803A1D
:100E7A00FF0080307F02031D442F973021020318A0
:100E8A007F2F073083120313A0002008F3002330BA
:100E9A000A128A115D230A128A110230831203137D
:100EAA00A2004530A100A930A000A00B5A2FA10B27
:100EBA005A2FA20B5A2F831203130715413083129C
:100ECA000313A100ED30A000A00B692FA10B692F1D
:100EDA006E2F831203130711103083120313A2001B
:100EEA003930A1000D30A000A00B792FA10B792F6A
:100EFA00A20B792F831203132A08A0002007263E8B
:100F0A00840083130008A100840A0008A2002208B2
:100F1A00803AFF0080307F02031D952F9630210210
:100F2A000318AF2F831203132A08A0002007263EB6
:100F3A00840083130008A100840A0008A200220882
:100F4A00803AFF0080307F02031DAD2F033021025B
:100F5A000318C92F073083120313A0002008F300D7
:100F6A002B300A128A115D230A128A110230831267
:100F7A000313A2004530A100A930A000A00BC32F83
:100F8A00A10BC32FA20BC32F0B3083120313A20092
:100F9A002630A1005D30A000A00BD12FA10BD12FCC
:100FAA00A20BD12F013083120313AA070318AB0A2D
:100FBA000030AB072B08803AFF0080307F02031D08
:100FCA00E82F02302A02031CA62C41308312031395
:100FDA00A100ED30A000A00BF02FA10BF02FF52FF0
:100FEA007A2C83120313AC01AD01AE01AF01830168
:060FFA000A128A11582CB6
:02400E00BA3FB7
:00000001FF
